:020000040800F2
:10000000EC7501205DB6030867B6030885B60308E2
:10001000A3B60308C1B60308DFB60308000000005A
:10002000000000000000000000000000E9300008AF
:10003000FDB6030800000000813000081BB703086C
:1000400039B7030857B7030875B7030893B7030810
:10005000B1B70308CFB70308EDB703080BB803081F
:1000600029B8030847B8030865B8030883B803082C
:10007000A1B80308BFB80308DDB80308FBB803083C
:1000800019B9030837B9030855B9030873B9030848
:1000900091B90308AFB90308CDB90308EBB9030858
:1000A00009BA030827BA030845BA030863BA030864
:1000B00081BA03088BBA0308A9BA0308C7BA0308B0
:1000C000E5BA030803BB030821BB03083FBB0308D1
:1000D0005DBB03087BBB030899BB0308B7BB0308E0
:1000E000D5BB0308F3BB030811BC03082FBC0308EE
:1000F0004DBC03086BBC030889BC0308A7BC0308FC
:10010000C5BC0308E3BC030801BD03081FBD030809
:100110003DBD03085BBD030879BD030897BD030817
:10012000B5BD0308D3BD0308F1BD03080FBE030826
:100130002DBE03084BBE030869BE030887BE030833
:10014000A5BE0308C3BE0308E1BE0308FFBE030843
:100150001DBF03083BBF030859BF030877BF03084F
:1001600095BF0308B3BF0308D1BF0308EFBF03085F
:100170000DC003082BC0030849C00308000000009D
:1001800067C0030885C003080000000000000000ED
:10019000000000000000000000000000000000005F
:1001A000000000000000000000000000000000004F
:1001B000000000000000000000000000000000003F
:1001C000000000000000000000000000000000002F
:1008000002000205000301030000000000000004D4
:1008100000000108080205070000000300080905A0
:1008200000000000000000000000040708040201AE
:1008300046534531323220422020202020202020E3
:100840000000000001020304050607010407010877
:100850000200010900050205202020202020202080
:100860002020202020202020202020202020202088
:100870002020202020202020202020202020202078
:100880008582B43900000000000000000000000173
:100890000000010808020508C781AAB00000000096
:1008A0000000000000000001000001080802050926
:1008B000701BC76C00000000000000000000000278
:1008C00000000108080205062020202020204130D9
:1008D000020001090001020186A3728C00000000E1
:1008E00000000000000000030000010005000009F6
:1008F0000000000000000002FAFBBEC9000000007A
:1009000000000000000000000000000000000000E7
:1009100000000000000000000000000000000000D7
:1009200000000000000000000000000000000000C7
:1009300000000000000000000000000000000000B7
:10300000DEADBEEF00000000EFF3148111F003000D
:10301000032800D100DFEFF311804FF0200272B6D9
:1030200082F3118862B681F314887047EFF314813C
:1030300011F00302032A00D100DF80F3118881F32D
:103040001488704720484FF0FF0101700178F0208C
:1030500088420AD1002080F309881C4801210170B0
:103060001B484FF08051016062B6FEE718484FF0F0
:1030700080510160704716484FF0805101607047E1
:1030800072B6EFF3098038B17246EFF3148320E98A
:10309000FC0F1049096808600F4880470F48104925
:1030A0000A7802700B480F490A6802601068B0E89D
:1030B000FC0F964683F31488BFF36F8F80F3098863
:1030C0004EF0040E62B6704722ED00E02C0900209D
:1030D00004ED00E030090020ED640308280800201A
:1030E00029080020380900204FF0000181F31488DE
:1030F0007047EFF31480704780F314887047EFF344
:10310000148040F0010080F31488704700BFEFF393
:10311000098000F118000068704701480068704796
:1031200034ED00E081F0004102E000BF83F0004395
:1031300030B54FEA41044FEA430594EA050F08BF52
:1031400090EA020F1FBF54EA000C55EA020C7FEA16
:10315000645C7FEA655C00F0E2804FEA5454D4EB93
:103160005555B8BF6D420CDD2C4480EA020281EA5D
:10317000030382EA000083EA010180EA020281EA95
:103180000303362D88BF30BD11F0004F4FEA0131E7
:103190004FF4801C4CEA113102D0404261EB4101F6
:1031A00013F0004F4FEA03334CEA133302D052427C
:1031B00063EB430394EA050F00F0A780A4F1010438
:1031C000D5F1200E0DDB02FA0EFC22FA05F2801872
:1031D00041F1000103FA0EF2801843FA05F3594158
:1031E0000EE0A5F120050EF1200E012A03FA0EFCD7
:1031F00028BF4CF0020C43FA05F3C01851EBE37101
:1032000001F0004507D54FF0000EDCF1000C7EEB1D
:1032100000006EEB0101B1F5801F1BD3B1F5001F5B
:103220000CD349085FEA30004FEA3C0C04F101047A
:103230004FEA445212F5800F80F09A80BCF1004FA3
:1032400008BF5FEA500C50F1000041EB045141EA25
:10325000050130BD5FEA4C0C404141EB0101013CEE
:1032600028BFB1F5801FE9D291F0000F04BF0146DD
:103270000020B1FA81F308BF2033A3F10B03B3F1AF
:1032800020020CDA0C3208DD02F1140CC2F10C023F
:1032900001FA0CF021FA02F10CE002F11402D8BF9D
:1032A000C2F1200C01FA02F120FA0CFCDCBF41EA69
:1032B0000C019040E41AA2BF01EB0451294330BD38
:1032C0006FEA04041F3C1CDA0C340EDC04F1140415
:1032D000C4F1200220FA04F001FA02F340EA0300EC
:1032E00021FA04F345EA030130BDC4F10C04C4F132
:1032F000200220FA02F001FA04F340EA0300294612
:1033000030BD21FA04F0294630BD94F0000F83F45B
:10331000801306BF81F480110134013D4EE77FEA3E
:10332000645C18BF7FEA655C29D094EA050F08BF8A
:1033300090EA020F05D054EA000C04BF194610466B
:1033400030BD91EA030F1EBF0021002030BD5FEAAF
:10335000545C05D14000494128BF41F0004130BDD7
:1033600014F580043CBF01F5801130BD01F000452B
:1033700045F0FE4141F470014FF0000030BD7FEA9E
:10338000645C1ABF194610467FEA655C1CBF0B4699
:10339000024650EA013406BF52EA033591EA030FB0
:1033A00041F4002130BD00BF90F0000F04BF0021A8
:1033B000704730B54FF4806404F132044FF00005DB
:1033C0004FF0000150E700BF90F0000F04BF002154
:1033D000704730B54FF4806404F1320410F00045BA
:1033E00048BF40424FF000013EE700BF42004FEAB5
:1033F000E2014FEA31014FEA02701FBF12F07F4332
:1034000093F07F4F81F06051704732F07F4208BFE8
:10341000704793F07F4F04BF41F40021704730B5EF
:103420004FF4607401F0004521F000411CE700BF3B
:1034300050EA010208BF704730B54FF000050AE0BE
:1034400050EA010208BF704730B511F0004502D5BF
:10345000404261EB41014FF4806404F132045FEAC1
:10346000915C3FF4D8AE4FF003025FEADC0C18BF6A
:1034700003325FEADC0C18BF033202EBDC02C2F15C
:10348000200300FA03FC20FA02F001FA03FE40EAEE
:103490000E0021FA02F11444BDE600BF70B54FF0F2
:1034A000FF0C4CF4E06C1CEA11541DBF1CEA1355D0
:1034B00094EA0C0F95EA0C0F00F0DEF82C4481EA38
:1034C000030621EA4C5123EA4C5350EA013518BF58
:1034D00052EA033541F4801143F4801338D0A0FB45
:1034E00002CE4FF00005E1FB02E506F00042E0FBF2
:1034F00003E54FF00006E1FB03569CF0000F18BFF8
:103500004EF0010EA4F1FF04B6F5007F64F540749F
:1035100004D25FEA4E0E6D4146EB060642EAC62132
:1035200041EA55514FEAC52040EA5E504FEACE2E9F
:10353000B4F1FD0C88BFBCF5E06F1ED8BEF1004FA2
:1035400008BF5FEA500E50F1000041EB045170BD1E
:1035500006F0004646EA010140EA020081EA030162
:10356000B4EB5C04C2BFD4EB0C0541EA045170BD5E
:1035700041F480114FF0000E013C00F3AB8014F1D8
:10358000360FDEBF002001F0004170BDC4F1000421
:10359000203C35DA0C341BDC04F11404C4F12005A2
:1035A00000FA05F320FA04F001FA05F240EA0200FD
:1035B00001F0004221F0004110EBD37021FA04F633
:1035C00042EB06015EEA430E08BF20EAD37070BDED
:1035D000C4F10C04C4F1200500FA04F320FA05F04C
:1035E00001FA04F240EA020001F0004110EBD3704E
:1035F00041F100015EEA430E08BF20EAD37070BDBE
:10360000C4F1200500FA05F24EEA020E20FA04F396
:1036100001FA05F243EA020321FA04F001F0004145
:1036200021FA04F220EA020000EBD3705EEA430EB6
:1036300008BF20EAD37070BD94F0000F0FD101F0E5
:103640000046400041EB010111F4801F08BF013C1E
:10365000F7D041EA060195F0000F18BF704703F05C
:103660000046520043EB030313F4801F08BF013DE3
:10367000F7D043EA0603704794EA0C0F0CEA13559F
:1036800018BF95EA0C0F0CD050EA410618BF52EA59
:103690004306D1D181EA030101F000414FF000005F
:1036A00070BD50EA410606BF1046194652EA43066D
:1036B00019D094EA0C0F02D150EA013613D195EAE1
:1036C0000C0F05D152EA03361CBF104619460AD129
:1036D00081EA030101F0004141F0FE4141F4700133
:1036E0004FF0000070BD41F0FE4141F4780170BD23
:1036F00070B54FF0FF0C4CF4E06C1CEA11541DBF88
:103700001CEA135594EA0C0F95EA0C0F00F0A7F889
:10371000A4EB050481EA030E52EA03354FEA0131B6
:1037200000F088804FEA03334FF0805545EA1313C9
:1037300043EA12634FEA022245EA111545EA106591
:103740004FEA00260EF000419D4208BF964244F128
:10375000FD0404F5407402D25B084FEA3202B61A47
:1037600065EB03055B084FEA32024FF480104FF41B
:10377000002CB6EB020E75EB030E22BFB61A75468F
:1037800040EA0C005B084FEA3202B6EB020E75EB22
:10379000030E22BFB61A754640EA5C005B084FEA8A
:1037A0003202B6EB020E75EB030E22BFB61A754657
:1037B00040EA9C005B084FEA3202B6EB020E75EB62
:1037C000030E22BFB61A754640EADC0055EA060E23
:1037D00018D04FEA051545EA16754FEA06164FEA66
:1037E000C30343EA52734FEAC2025FEA1C1CC0D112
:1037F00011F4801F0BD141EA00014FF000004FF09F
:10380000004CB6E711F4801F04BF01430020B4F15F
:10381000FD0C88BFBCF5E06F3FF6AFAEB5EB030C17
:1038200004BFB6EB020C5FEA500C50F1000041EB14
:10383000045170BD0EF0004E4EEA113114EB5C04E1
:10384000C2BFD4EB0C0541EA045170BD41F48011B4
:103850004FF0000E013C90E645EA060E8DE60CEABC
:10386000135594EA0C0F08BF95EA0C0F3FF43BAFD9
:1038700094EA0C0F0AD150EA01347FF434AF95EA90
:103880000C0F7FF425AF104619462CE795EA0C0F74
:1038900006D152EA03353FF4FDAE1046194622E741
:1038A00050EA410618BF52EA43067FF4C5AE50EA1B
:1038B00041047FF40DAF52EA43057FF4EBAE12E70B
:1038C0004FF0FF3C06E000BF4FF0010C02E000BFEC
:1038D0004FF0010C4DF804CD4FEA410C7FEA6C5CCF
:1038E0004FEA430C18BF7FEA6C5C1BD001B050EA72
:1038F000410C0CBF52EA430C91EA030F02BF90EA5D
:10390000020F0020704710F1000F91EA030F58BF1B
:10391000994208BF90422CBFD8176FEAE37040F07D
:10392000010070474FEA410C7FEA6C5C02D150EA1B
:10393000013C07D14FEA430C7FEA6C5CD6D152EAD6
:10394000033CD3D05DF8040B704700BF844610469B
:1039500062468C461946634600E000BF01B5FFF79A
:10396000B7FF002848BF10F1000F01BD4DF808ED6A
:10397000FFF7F4FF0CBF012000205DF808FB00BF3B
:103980004DF808EDFFF7EAFF34BF012000205DF895
:1039900008FB00BF4DF808EDFFF7E0FF94BF0120E2
:1039A00000205DF808FB00BF4DF808EDFFF7CEFFE3
:1039B00094BF012000205DF808FB00BF4DF808ED22
:1039C000FFF7C4FF34BF012000205DF808FB00BFF3
:1039D0004FEA410C7FEA6C5C02D150EA013C0AD10B
:1039E0004FEA430C7FEA6C5C02D152EA033C02D1FD
:1039F0004FF0000070474FF0010070474FEA41025E
:103A000012F5001215D211D56FF47873B3EB625230
:103A100012D94FEAC12343F0004343EA505311F057
:103A2000004F23FA02F018BF404270474FF00000E9
:103A3000704750EA013005D111F0004008BF6FF027
:103A4000004070474FF00000704700BF4A0011D29D
:103A500012F5001211D20DD56FF47873B3EB6252E8
:103A60000ED44FEAC12343F0004343EA505323FAF4
:103A700002F070474FF00000704750EA013002D169
:103A80004FF0FF3070474FF00000704780F000406B
:103A900002E000BF81F0004142001FBF5FEA410326
:103AA00092EA030F7FEA226C7FEA236C6AD04FEA26
:103AB0001262D2EB1363C1BFD2184140484041406B
:103AC000B8BF5B42192B88BF704710F0004F40F41D
:103AD000000020F07F4018BF404211F0004F41F439
:103AE000000121F07F4118BF494292EA030F3FD005
:103AF000A2F1010241FA03FC10EB0C00C3F1200318
:103B000001FA03F100F0004302D5494260EB4000A6
:103B1000B0F5000F13D3B0F1807F06D340084FEA11
:103B2000310102F10102FE2A51D2B1F1004F40EB06
:103B3000C25008BF20F0010040EA0300704749006E
:103B400040EB0000013A28BFB0F5000FEDD2B0FA0B
:103B500080FCACF1080CB2EB0C0200FA0CF0AABF2E
:103B600000EBC25052421843BCBFD04018437047CC
:103B700092F0000F81F4000106BF80F400000132D2
:103B8000013BB5E74FEA41037FEA226C18BF7FEAA9
:103B9000236C21D092EA030F04D092F0000F08BFEB
:103BA0000846704790EA010F1CBF0020704712F0D2
:103BB0007F4F04D1400028BF40F00040704712F111
:103BC00000723CBF00F50000704700F0004343F076
:103BD000FE4040F4000070477FEA226216BF0846AC
:103BE0007FEA23630146420206BF5FEA412390EA6F
:103BF000010F40F4800070474FF0000304E000BF65
:103C000010F0004348BF40425FEA000C08BF704715
:103C100043F0964301464FF000001CE050EA0102D9
:103C200008BF70474FF000030AE000BF50EA0102EE
:103C300008BF704711F0004302D5404261EB4101DB
:103C40005FEA010C02BF84460146002043F0B64300
:103C500008BFA3F18053A3F50003BCFA8CF2083A25
:103C6000A3EBC25310DB01FA02FC634400FA02FC2E
:103C7000C2F12002BCF1004F20FA02F243EB020035
:103C800008BF20F00100704702F1200201FA02FC97
:103C9000C2F1200250EA4C0021FA02F243EB02008A
:103CA00008BF20EADC7070477BB972B90029BEBF3B
:103CB00000204FF0004106E008BF00281CBF6FF055
:103CC00000414FF0FF3000F02DB9ADF1080C6DE967
:103CD00004CE002909DB002B1ADB53F059FCDDF878
:103CE00004E0DDE9022304B07047404261EB41018A
:103CF000002B1BDB53F04CFCDDF804E0DDE9022374
:103D000004B0404261EB4101524263EB4303704710
:103D1000524263EB430353F03BFCDDF804E0DDE982
:103D2000022304B0404261EB41017047524263EB11
:103D3000430353F02DFCDDF804E0DDE9022304B079
:103D4000524263EB4303704753B94AB9002908BF95
:103D500000281CBF4FF0FF314FF0FF3000F0E2B8F9
:103D6000ADF1080C6DE904CE53F012FCDDF804E06F
:103D7000DDE9022304B0704700F1340191E8380016
:103D80009C46A6464CF8045D90E8FF0FE54600BD52
:103D900090EC210B704700BF80EC210B704700BFF7
:103DA00090EC200B704700BF80EC200B704700BFE9
:103DB000D0EC200B704700BFC0EC200B704700BF59
:103DC000F0EC0201F0EC0211F0EC0221F0EC023117
:103DD000F0EC0241F0EC0251F0EC0261F0EC027107
:103DE000F0EC0281F0EC0291F0EC02A1F0EC02B1F7
:103DF000F0EC02C1F0EC02D1F0EC02E1F0EC02F1E7
:103E0000704700BFE0EC0201E0EC0211E0EC02219F
:103E1000E0EC0231E0EC0241E0EC0251E0EC026146
:103E2000E0EC0271E0EC0281E0EC0291E0EC02A136
:103E3000E0EC02B1E0EC02C1E0EC02D1E0EC02E126
:103E4000E0EC02F1704700BFB0FC0181B0FC0191D1
:103E5000B0FC01A1B0FC01B1704700BFA0FC018122
:103E6000A0FC0191A0FC01A1A0FC01B1704700BF22
:103E7000EC4600B52DE900502DE9FF1F4FF000037F
:103E80002DE90C0001A953F037FEDDF840E012B037
:103E9000704700BFEC4600B52DE900502DE9FF1F2B
:103EA0004FF000032DE90C0001A953F061FEDDF88D
:103EB00040E012B0704700BFEC4600B52DE900505D
:103EC0002DE9FF1F4FF000032DE90C0001A953F06D
:103ED00071FEDDF840E012B0704700BFEC4600B55F
:103EE0002DE900502DE9FF1F4FF000032DE90C00D4
:103EF00001AB53F035FEDDF840E012B0704700BF73
:103F0000EC4600B52DE900502DE9FF1F4FF00003EE
:103F10002DE90C0001AA53F0A3FEDDF840E012B039
:103F2000704700BF704700BF10F8012B11F8013B2C
:103F3000012A28BF9A42F7D0D01A704790F836303D
:103F40003C2B00D07047024B00221A80FAE700BFDA
:103F500000410120704770477047000008B536F0F7
:103F60004DFC024B186834F0B3FE08BD3809002040
:103F700010B50C460E4838F09BFE012C09D063B2F8
:103F80008BB1023CE4B2022C0DD80A4838F090FE06
:103F900002E0094838F08CFE36F0DEF936F08CFB92
:103FA00038F0E0FD10BD054838F082FEF4E700BFB0
:103FB0000C8E05087C8E0508388E0508E08E0508F5
:103FC00008B5094A138801339BB21380632B00D8CC
:103FD00008BD134600221A8033F03CFD0028F7D0BC
:103FE00035F0CCFEF4E700BF00410120014B036037
:103FF000704700BF7C9305088446034B0FCB8CE8C9
:104000000F006046704700BF68870508024A0260DB
:10401000024A0260704700BF8C9305087C93050834
:1040200008B50368984708BD0B6803607047704780
:10403000064A0260064A0260064A8260064A8260B8
:10404000064AC260064AC260704700BF0097050872
:10405000E4960508D0960508AC26060894260608BE
:1040600054940508044A0260044A0260044A42600B
:10407000044A4260704700BFD0960508AC26060887
:104080009426060854940508044A0260044A4260D3
:10409000044A4260044A0260704700BFAC960508BB
:1040A000849605085C960508E4950508024A0260B6
:1040B000024A0260704700BF849605085C960508B6
:1040C000024A0260024A0260704700BF2896050853
:1040D00008960508024A0260024A0260704700BF63
:1040E000CC950508B4950508024A0260024A0260B0
:1040F000704700BF9C95050884950508024A026038
:10410000024A0260704700BF6C9505085495050887
:10411000044A0260044A0260044A0260044A0260DF
:10412000704700BFF0930508DC9305088C930508E1
:104130007C930508044A0260044A0260044A026053
:10414000044A0260704700BF1894050804940508EB
:104150008C9305087C930508044A0260044A0260B7
:10416000044A0260044A0260704700BF4094050898
:104170002C9405088C9305087C9305084369DA683C
:104180001B69D31A9A4201D9002070470120704759
:1041900004307047D0F80401704700F11403036144
:1041A000704790ED010A7047D0ED027AF4EEC07AC4
:1041B000F1EE10FA0AD8D0ED037AF4EEC07AF1EEFF
:1041C00010FA05DB80ED010A0120704700207047DE
:1041D000002070474068704783688B4205DCC368E5
:1041E0008B4204DB416001207047002070470020B3
:1041F0007047844604310FC98CE80F006046704751
:1042000000F114030361704700F11003C268816874
:10421000521A83601344C360704700F11003C268F0
:104220008168521A83601344C360704700F1100321
:10423000C2688168521A83601344C36070470000EB
:1042400010B50446044B0360044B0360102152F088
:10425000C7F8204610BD00BF8C9305087C93050865
:1042600010B50446034B0360082152F0B9F820460C
:1042700010BD00BF7C93050810B50446064B0360D3
:10428000064B4360064B4360064B03604FF4867158
:1042900052F0A6F8204610BDAC9605088496050895
:1042A0005C960508E495050810B50446044B0360C8
:1042B000044B03604FF4847152F092F8204610BD15
:1042C000849605085C96050810B50446044B036007
:1042D000044B0360042152F083F8204610BD00BF58
:1042E000289605080896050810B50446044B036097
:1042F000044B0360342152F073F8204610BD00BF18
:104300006C9505085495050810B50446044B0360E8
:10431000044B0360102152F063F8204610BD00BF2B
:104320009C9505088495050810B50446044B036068
:10433000044B0360102152F053F8204610BD00BF1B
:10434000CC950508B495050810B50446064B0360E6
:10435000064B0360064B0360064B0360302152F0AE
:104360003FF8204610BD00BFF0930508DC93050818
:104370008C9305087C93050810B50446064B036032
:10438000064B0360064B0360064B0360302152F07E
:1043900027F8204610BD00BF1894050804940508AE
:1043A0008C9305087C93050810B50446064B036002
:1043B000064B0360064B0360064B0360302152F04E
:1043C0000FF8204610BD00BF409405082C94050846
:1043D0008C9305087C93050810B50446084B0360D0
:1043E000084B0360084B8360084B8360084BC36035
:1043F000084BC360F02151F0F3FF204610BD00BF11
:1044000000970508E4960508D0960508AC2606082E
:10441000942606085494050810B50446064B03601C
:10442000064B0360064B4360064B4360B82151F0D6
:10443000D7FF204610BD00BFD0960508AC26060861
:10444000942606085494050810B50446402104300B
:1044500034F06AFAC4F80401003818BF012010BD16
:1044600010B504464021083034F05EFAC4F8080163
:10447000003818BF012010BDD0F8040140B108B5C4
:104480000022096834F07EFAB0FA80F0400908BDD5
:104490000020704700B587B001A9D0F8040134F0BE
:1044A00089FA50B9BDF80800BDF80A30984234BF07
:1044B0000020012007B05DF804FB0120FAE7D0F8E6
:1044C000040178B110B582B00C460DF1070134F04B
:1044D00015FA9DF8073013B92060012000E0002094
:1044E00002B010BD00207047D0F8040180B110B5B3
:1044F00082B00C4611460DF1070234F02BFA9DF8FC
:10450000073013B92060012000E0002002B010BD88
:1045100000207047F0B583B0061D90F8E8502DB923
:104520001F23C6F8E830284603B0F0BD0C460DF155
:1045300003020021406834F00DFA07469DF803306D
:10454000C6F8E8300BB10025EDE70FC884E80F008E
:10455000341D06F1080101A839F010F9237C63B974
:104560000123636101A839F012F9B369002BDAD095
:104570002223C6F8E8300025D5E727B13946E068A0
:1045800034F0A6F902E003236361EBE76061E9E739
:1045900001A839F0FCF851F025FF2DE9F04383B074
:1045A000071D90F8E86036B91F23C7F8E830304699
:1045B00003B0BDE8F08304460D4607F1040907F196
:1045C000080101A839F0DAF899F8103033B10DF18B
:1045D0000301D9F80C0034F065F905E00123C9F8AE
:1045E00014304FF0000804E080469DF80330C9F80D
:1045F000143001A839F0CBF8BB695BB15D2B18D042
:104600002223C7F8E8300026D1E701A839F0BFF827
:1046100051F0E8FE95E80F0088E80F0000224146BF
:10462000606834F0AFF9C7F8E8000028BFD0002672
:10463000BDE71E23C7F8E8300026B8E7D0F8080128
:1046400030B108B500224FF4003134F09BF908BDB9
:104650007047D0F8080128B108B50022114634F09F
:1046600091F908BD7047D0F8080130B108B541F4A0
:104670008031002234F086F908BD7047114B036089
:10468000114B0360037B13F0020F00D170474FF012
:10469000000343600DD002690023134481680A447B
:1046A000D21A03E0002203F8012B0A46511E002A09
:1046B000F8D1036900221A70037B23F0010303730E
:1046C000E4E700BF9094050868930508114B036068
:1046D000114B0360037B13F0020F00D170474FF0C2
:1046E000000343600DD002690023134481680A442B
:1046F000D21A03E0002203F8012B0A46511E002AB9
:10470000F8D1036900221A70037B23F001030373BD
:10471000E4E700BF489605086893050810B504460D
:10472000134B0360134B0360037B13F0020F05D19F
:104730004021204651F054FE204610BD4FF00003AA
:1047400043600DD002690023134481680A44D21AE1
:1047500003E0002203F8012B0A46511E002AF8D17B
:10476000236900221A70237B23F001032373DFE700
:10477000489605086893050810B50446134B036076
:10478000134B0360037B13F0020F05D11C2120465D
:1047900051F026FE204610BD4FF0000343600DD0BF
:1047A00002690023134481680A44D21A03E00022FC
:1047B00003F8012B0A46511E002AF8D12369002272
:1047C0001A70237B23F001032373DFE7909405081D
:1047D0006893050884B0844601A880E80E00DCF8E0
:1047E0001430019A9A4218DABDF90820BCF9183041
:1047F0009A4232DABDF80A20BCF81A309A422ED218
:10480000BDF80C20BCF81C309A422AD2DCF82030CB
:10481000049A9A4227D3002000E00020B8BBDCF8BD
:104820002420019B9A4220DABCF92820BDF90830E7
:104830009A4224DABCF82A20BDF80A309A4220D2E3
:10484000BCF82C20BDF80C309A421CD2DCF8302089
:10485000049B9A4219D3034608E00020DEE70020BB
:10486000DCE70020DAE70120D8E7034683B90CF142
:10487000040C01AB0FCB8CE80F00012008E00346CD
:10488000F4E70346F2E70346F0E70123EEE70020F2
:1048900004B07047F0B59DB00446A84B03600546D0
:1048A000A74B45F8043B00230D93ADF83830ADF825
:1048B0003A30ADF83C30109311A844F008F915A82F
:1048C00044F0F8F80DF1040E0DAB0FCB8EE80F009D
:1048D0000DF1140C11AB0FCB8CE80F0009AE15AB2A
:1048E0000FCB86E80F00974B6360974B63602F1DDB
:1048F0009EE80F0087E80F0005F1140E9CE80F00FA
:104900008EE80F0005F1240C96E80F008CE80F00EC
:104910006A686B699A4216DAB7F90420BEF9043066
:104920009A424EDAFA88BEF806309A424BD23A8959
:10493000BEF808309A4248D2FA68DEF80C309A4243
:1049400045D3002300E00023002B34D105F12402DD
:10495000686A6968884212DAB2F90400B7F904108B
:1049600088420CDAD088F988884208D210893989BF
:10497000884204D2D068F968884200D20123D3B9B2
:10498000686A6969884215DAB2F90400BEF9041050
:1049900088420FDAD088BEF8061088420AD2108901
:1049A000BEF80810884205D2D168DEF80C2091428A
:1049B00000D201236BB12F226449654838F074F8A6
:1049C00007E00023C0E70023BEE70023BCE7012384
:1049D000BAE76048A0636049A1630025E5634FF032
:1049E000004222646FF000436364A064A164E56444
:1049F00022656365A065A165E56522666366A066BC
:104A0000A166E56622676367A067A167E567C4F8EA
:104A10008020C4F88430C4F88800C4F88810C4F832
:104A20008C50C4F89020C4F89430C4F89800C4F8AE
:104A30009810C4F89C50C4F8A020C4F8A430C4F85E
:104A4000A800C4F8A810C4F8AC50C4F8B020C4F84A
:104A5000B43004F1B806C4F8B800C4F8B8107560F2
:104A6000B260F3603D4AC4F8C8203D4AC4F8C8208B
:104A70000022C4F8CC203B4AC4F8D0204FF07E522C
:104A8000C4F8D42017E02F4B63602C4B236051F007
:104A9000A9FC354851F0FFFFF8B1344B00221A60F1
:104AA0005A60314852F003F817E004EB8606002301
:104AB000C6F8D8300135042D5EDC2E46042DF4D91D
:104AC0002B4B19932B4B1A9377231B93264B1B6865
:104AD000BFF35B8F13F0010FDBD0244B5B68002B1F
:104AE000E3D019A9214A10689847DEE71C4BC4F8A7
:104AF000C8301A4BC4F8C830174AC4F8B820154B50
:104B0000C4F8B830C4F8A820C4F8A830C4F8982075
:104B1000C4F89830C4F88820C4F88830A267A36726
:104B2000A266A366A265A365A264A364A263A3634D
:104B3000054B6360034B6360A7E7A6E7E4940508B1
:104B4000203D0608549505086C9505085C8F0508FE
:104B5000B08F0508849505089C950508B49505084F
:104B6000CC950508000080BF0441012008410120C8
:104B7000F88F05080490050820461DB0F0BD00BF61
:104B800010B58CB01A4A22F47F7222F00302013A67
:104B9000184904A838F072FE174C184B02930123F1
:104BA00001934023009323460022154904A838F0BE
:104BB00081FE1022002108A853F022FD114B08931A
:104BC000114B0B934FF47A72002308A904F58070FF
:104BD0003AF007FE0B9B13B19B6808A898470CB0EE
:104BE00010BD0B9B13B19B6808A8984751F0FAFBC6
:104BF0005B29012000800020188000202C900508EF
:104C0000295200081BB7030814970508104B0360CE
:104C1000037B13F0020F00D170474FF00003436095
:104C20000DD002690023134481680A44D21A03E0BC
:104C3000002203F8012B0A46511E002AF8D103690D
:104C400000221A70037B23F001030373E4E700BF23
:104C50006893050830B585B0044600F114030022BE
:104C60004260282181600273394901600361394B38
:104C70000360394B00E0013213F8011B0029FAD11F
:104C8000354D1544002A0CDB00236360237B13F0B1
:104C9000020F31D0226900231344A1680A44D21ABA
:104CA00027E02E4B01932E4B029340F2EF23039308
:104CB0002C4B1B68BFF35B8F13F0010F08D02A4BFE
:104CC0005B68002BE0D001A9274A10689847DBE712
:104CD000244851F0E0FE0028F1D0234B00221A6056
:104CE0005A60204851F0E3FEE9E7002203F8012B67
:104CF0000A46511E002AF8D1236900221A70237B2C
:104D000023F001032373144B05E02169501C6060FC
:104D100013F8010B88549D4203D06268A1688A424F
:104D2000F3D121696268002088549D4206D0237B1C
:104D300043F001032373204605B030BD237B23F0ED
:104D400001032373F7E72046FFF760FF51F04AFBAA
:104D500068930508489605083890050840900508AE
:104D600050900508044101200841012030B585B06C
:104D7000044600F11403002242602821816002737E
:104D8000394901600361394B0360394B00E001325E
:104D900013F8011B0029FAD1354D1544002A0CDB0C
:104DA00000236360237B13F0020F31D022690023BC
:104DB0001344A1680A44D21A27E02E4B01932E4BCC
:104DC000029340F2EF2303932C4B1B68BFF35B8FDE
:104DD00013F0010F08D02A4B5B68002BE0D001A92B
:104DE000274A10689847DBE7244851F054FE002812
:104DF000F1D0234B00221A605A60204851F057FE30
:104E0000E9E7002203F8012B0A46511E002AF8D1D7
:104E1000236900221A70237B23F001032373144BB0
:104E200005E02169501C606013F8010B88549D4215
:104E300003D06268A1688A42F3D1216962680020C8
:104E400088549D4206D0237B43F001032373204600
:104E500005B030BD237B23F001032373F7E7204621
:104E6000FFF7D4FE51F0BEFA68930508489605088E
:104E700080900508409005085090050804410120E5
:104E80000841012030B585B0044600F1140300222A
:104E90004260282181600273394901600361394B06
:104EA0000360394B00E0013213F8011B0029FAD1ED
:104EB000354D1544002A0CDB00236360237B13F07F
:104EC000020F31D0226900231344A1680A44D21A88
:104ED00027E02E4B01932E4B029340F2EF230393D6
:104EE0002C4B1B68BFF35B8F13F0010F08D02A4BCC
:104EF0005B68002BE0D001A9274A10689847DBE7E0
:104F0000244851F0C8FD0028F1D0234B00221A603C
:104F10005A60204851F0CBFDE9E7002203F8012B4D
:104F20000A46511E002AF8D1236900221A70237BF9
:104F300023F001032373144B05E02169501C6060CA
:104F400013F8010B88549D4203D06268A1688A421D
:104F5000F3D121696268002088549D4206D0237BEA
:104F600043F001032373204605B030BD237B23F0BB
:104F700001032373F7E72046FFF748FE51F032FAAA
:104F8000689305084896050888900508409005082C
:104F900050900508044101200841012010B5044645
:104FA000124B0360037B13F0020F05D1142120463E
:104FB00051F016FA204610BD4FF0000343600DD0AB
:104FC00002690023134481680A44D21A03E00022D4
:104FD00003F8012B0A46511E002AF8D1236900224A
:104FE0001A70237B23F001032373DFE7689305081E
:104FF00070B584B0054600F114020023436004201C
:10500000A8602B733B4B2B602A613B4B2B600C46FB
:1050100011B10B46002202E0002204E0013213F835
:10502000011B0029FAD1A618002A12DB00236B60AD
:105030002B7B13F0020F30D02A6900231344A96898
:105040000A44D21A511E42B3002203F8012B0A4629
:10505000F8E72A4B01932A4B029340F2EF23039384
:10506000284B1B68BFF35B8F13F0010F08D0264B52
:105070005B68002BDAD001A9234A10689847D5E76E
:10508000204851F008FD0028F1D01F4B00221A6083
:105090005A601C4851F00BFDE9E72B6900221A7099
:1050A0002B7B23F001032B7307E022462969581C50
:1050B000686012F8010BC8541446A64203D06B680E
:1050C000AA689342F1D12A696B680021D154A642A3
:1050D00006D02B7B43F001032B73284604B070BD30
:1050E0002B7B23F001032B73F7E72846FFF78EFD98
:1050F00051F078F9689305089094050840900508E8
:1051000050900508044101200841012070B584B089
:10511000054600F11402002343602820A8602B7389
:105120003B4B2B602A613B4B2B600C4611B10B466D
:10513000002202E0002204E0013213F8011B0029E2
:10514000FAD1A618002A12DB00236B602B7B13F028
:10515000020F30D02A6900231344A9680A44D21AE6
:10516000511E42B3002203F8012B0A46F8E72A4BEE
:1051700001932A4B029340F2EF230393284B1B68C1
:10518000BFF35B8F13F0010F08D0264B5B68002B39
:10519000DAD001A9234A10689847D5E7204851F092
:1051A0007AFC0028F1D01F4B00221A605A601C487C
:1051B00051F07DFCE9E72B6900221A702B7B23F06C
:1051C00001032B7307E022462969581C686012F816
:1051D000010BC8541446A64203D06B68AA689342D8
:1051E000F1D12A696B680021D154A64206D02B7BED
:1051F00043F001032B73284604B070BD2B7B23F0D2
:1052000001032B73F7E72846FFF700FD51F0EAF89A
:1052100068930508489605084090050850900508D1
:10522000044101200841012070B5AEB00546AB4BEA
:105230002D93AB4B29AC0FCB84E80F00A94919A8DB
:10524000FFF764FFA84909A8FFF760FFA74838F0F7
:10525000E7F9A74838F0E4F900210091062302227B
:10526000A44838F0DDF99F49A34838F0D9F99E49A0
:10527000A24838F0D5F9A24838F0D2F9A14838F060
:10528000CFF9A14838F0CCF9A04838F0C9F9A049C5
:10529000A04838F0C5F9A04838F0C2F99F4838F066
:1052A000BFF9924838F0BCF935F04CFB01469C48F8
:1052B00038F0B6F935F096FF01469A4838F0B0F963
:1052C00035F096FF0146984838F0AAF935F0A2FF6C
:1052D0000146964838F0A4F9954828F02FFE9548E5
:1052E00009F076F84021944833F01EFB934BC3F845
:1052F000280160B1924E934C24F47F7424F003048F
:10530000013C2246314608A838F0CAFB05E0A1223C
:105310008D498E4837F0C8FBECE78D4A22F47F7246
:1053200022F00302013A8B4907A838F0B9FB224664
:10533000314606A838F0B4FB2246314605A838F0BD
:10534000AFFB854A22F47F7222F00302013A8349BF
:1053500004A838F0A5FB824B93F8E83053B1804B9A
:1053600093F8E830002B35D1AF2277497D4837F0EC
:105370009BFB2FE00A217C4833F0D6FA784B58602B
:1053800018B31B7E53B1764B1B7ECBB1744B0122FD
:1053900083F8E8200022C3F8EC20E0E70DF10F03CA
:1053A00010220A21714833F061FA6D4A50619DF86C
:1053B0000F30D361002BE6D1134601221A76E2E7C3
:1053C000674B2122C3F8EC20C9E7654B2022C3F8C4
:1053D000EC20C4E728462EF01BF909F0C9FA644B0B
:1053E00001930090524B5E4A624907A82EF098FC48
:1053F0004F4A604907A82FF07FF906A814F074FA05
:1054000009F0B6FA38B1564B0093F03304AA08A954
:1054100007A830F0D7F920F05FFFFF2033F084FBBE
:10542000554B0993554B09939DF8303013F0020FFB
:105430000CD1514B1993514B19939DF8703013F0C7
:10544000020F1FD14E4B2D932EB070BD4FF00003B5
:105450000A930DD00D9A002313440B990A44D21AD3
:1054600003E0002203F8012B0A46511E002AF8D15E
:105470000D9B00221A709DF8303023F001038DF847
:105480003030D6E74FF000031A930DD01D9A002359
:1054900013441B990A44D21A03E0002203F8012B9B
:1054A0000A46511E002AF8D11D9B00221A709DF851
:1054B000703023F001038DF87030C3E72E4B099351
:1054C00009A8FFF7A3FB2C4B199319A8FFF79EFB24
:1054D0002B4B2D9350F086FFF5E7F9E7289605084A
:1054E0006887050880900508389005089890050899
:1054F000F09005082091050840910508589105088D
:105500007491050894910508B0910508E09105088B
:10551000049205080C92050824920508509205088B
:10552000709205088092050890920508A4920508DB
:10553000608100202C410120389100201091002032
:10554000008000205B290120B8920508D892050848
:10555000EB3F0120002801207B5000200048002064
:1055600000280120F4920508C028012020280120ED
:10557000509600203C920020489605086893050844
:105580000896050830B583B00446051D3B4B4360C3
:105590003B4B6B603B4B6B600021A9603A4B436017
:1055A000E96029746961A0221C3053F029F8374B57
:1055B0001B78012B0BD0002384F8E430C4F8E830CA
:1055C000324B1B78012B1ED0204603B030BD2B7C04
:1055D000002BF0D10DF1070310220A2105F118006C
:1055E00033F044F9E8609DF807306B61002BE2D19D
:1055F00001232B74DFE7214B6360224B6B60204B50
:105600006B6050F0EFFE94F8E430002BDCD10A21FF
:1056100004F1BC0033F088F9206000B3251D237D20
:1056200043B1237DBBB1012384F8E4300023C4F8E7
:10563000E830C9E70DF1070310220A2105F118002F
:1056400033F014F9E8609DF807306B61002BE8D166
:1056500001232B74E5E72123C4F8E830B4E72023C5
:10566000C4F8E830B0E7084B6360044B6360054B57
:10567000A360034BA36050F0B5FE00BFAC26060844
:105680005494050894260608D09605082C09002095
:105690002DE9F04F87B0019090460F688368002194
:1056A0000C460D46009110E0E64502D201227A72C6
:1056B00014E03A68B2FA82F252097A723D460094D6
:1056C0000CE03B4621463C461746FFB1B8F800C007
:1056D000B7F80CE0E645E7D900227A7297F809C0DE
:1056E00057F82C2092B197F808E0BEF1020FE8D0ED
:1056F000CCF1010CE645E6D157F82CC09CF808C067
:10570000BCF1020FDFD13B462146DCE745B99FE102
:10571000C8F1010883F808805A7A194653F82230F4
:10572000002B00F0398193F8098053F82820002AD3
:1057300000F032811A7A022AEAD0904536D0C8F1B8
:10574000010253F822C09CF80820904531D0022A6B
:1057500000F0C180002900F0FE8091F809C0C8F176
:1057600001085FFA88F851F82C2052F82870C8F127
:10577000010957F8296042F8286051F82CE047F8F1
:1057800029E002228EF8082041F82C703A729D42DE
:10579000C2D1002900F0F7804A7A51F82210009116
:1057A0000A68521B18BF01224A72B5E702221A7218
:1057B000B2E7002942D04A7A01EB820EC8F1010714
:1057C000FFB25CF828C09CF808A051F8222052F8DB
:1057D0002720C7F1010952F829C0BAF1020F75D08C
:1057E000574570D0BB4682F808B0DEF8002052F86A
:1057F00027205CF8276042F82960DEF8002052F884
:1058000027204CF82720BAF1020F03D0574560D06B
:105810004FF0020ADEF8002082F808A0DEF800202F
:105820005CF8296042F82760DEF800204CF8292057
:10583000CEF800C002228CF80820A8E7C8F10102C7
:10584000D2B25CF8287097F808C00198876857F8BA
:105850002290C2F1010E59F82E70BCF1020F2DD02A
:10586000624528D0924689F808A00198866856F8C3
:10587000229057F8226049F82E60D0F8089059F825
:10588000226047F82260BCF1020F03D0624518D0B5
:105890004FF0020C0198866886F808C0866857F8B1
:1058A0002E0046F822000198826847F82E20876073
:1058B00002223A726BE74FF0020AD4E74FF0020A75
:1058C000D1E7C446E6E74FF0020B8CE74FF0020B3E
:1058D00089E7C2469EE719B391F809C0C8F10108EB
:1058E0005FFA88F851F82C2052F82870C8F10109A5
:1058F00057F8296042F8286051F82CE047F829E071
:1059000002228EF8082041F82C703A724A7A51F837
:1059100022205F7A17725A7AC2F101021A7236E7B0
:10592000C8F101085FFA88F8019EB26852F8287041
:10593000C8F1010E57F82E0042F82800D6F808C02A
:1059400047F82EC002228CF80820B7603A72B2687D
:105950005F7A1772DFE7C8F101085FFA88F80198EB
:10596000826852F82870C8F1010E57F82E6042F88C
:105970002860D0F808C047F82EC002228CF8082012
:1059800087603A7203E7019A916800910A68521B96
:1059900018BF01224A72BFE6009828B3417A677A9D
:1059A00050F8212054F8273040F82130597AC1F1BD
:1059B000010153F8211044F827101168196051684B
:1059C0005960127A1A72019A1368013B1360D46805
:1059D0002368EB1A26D462692169013A01FB02F2BD
:1059E000934229DD00221EE09CB1667A01998A6803
:1059F00054F826308B60597AC1F1010153F8211017
:105A000044F826101168196051685960127A1A72A8
:105A1000D9E701998A68537AC3F1010352F8233018
:105A20008B60D0E700222169B3FBF1F001FB10335A
:105A300022B123B1002202E00122F4E700225AB190
:105A40006368002B2CD02B606560A368013BA360CA
:105A5000284607B0BDE8F08F134B0393134B049314
:105A600040F27D130593124B1B68BFF35B8F13F05D
:105A7000010F08D00F4B5B68002BE1D003A90D4A42
:105A800010689847DCE70A4851F005F80028F1D083
:105A9000084B00221A605A60054851F008F8E9E7FF
:105AA00000232B60D0E700BF20930508349305083E
:105AB000044101200841012070B58EB0044683687E
:105AC00000E0134613B11A68002AFAD10294039336
:105AD0000094019326E0019A002A2BD10EB070BDEC
:105AE000043304E00BD92B462AE004F108031B68B9
:105AF000069407931A4653B15E681EB93AE00B4606
:105B0000F5E71E4616B13368002BFAD10796099ABD
:105B10000C322046FFF7BCFD069A0492079B0593C2
:105B2000009201930C9400230D930A940B93009B15
:105B30009C42D0D00893019A099204F10801A3680D
:105B4000002BD2D018688242D1D05D68AA42C7D05B
:105B5000B2F80CC09B899C45C4D20346F0E733469B
:105B600003E00FD92B460DE01346DBB158688242A3
:105B700018D11A460792A368002BF6D0002AF3D05A
:105B80009A42ECD0002BF0D018688242EDD05D68CC
:105B9000AA42EAD0B2F80CE0B3F80CC0E645E0D275
:105BA0000346EFE70793B2E710B504460F4B0360D7
:105BB0000F4B40F8043B04F1180100236360C82236
:105BC00042608360C16004F1300141618161C36161
:105BD0000362142343628262FFF76EFF03E0034B0C
:105BE000236050F0FFFB204610BD00BF6C940508F9
:105BF000F03B060870B520492048FFF7F9F9204D21
:105C000005F5807039F03EFD1E4C04F51C703CF02B
:105C10002DF804F5257604F51F721B4930463FF038
:105C2000C5F83146194808F0D1FB04F5967041F0EB
:105C300079FC05F5A470FFF7B7FF154B2362154BF0
:105C40002362154B6362154B63620022C4F828215E
:105C5000134B14491960144919605A601A72134C95
:105C6000201DFFF78FFC124B23602046114B40F89C
:105C7000F03BFEF70FFE70BD5C930508104101205C
:105C80001880002010910020000800082C410120FD
:105C9000E4950508AC9605085C9605088496050809
:105CA00000800020549405087C2606080028012066
:105CB000E496050800970508F8B5514B514AC3F81A
:105CC000F020514AC3F8B821504AC3F8B8215049CE
:105CD000C3F8A8114F4AC3F8A821C3F89811C3F814
:105CE0009821C3F88811C3F88821C3F87811C3F844
:105CF0007821C3F86811C3F86821C3F85811C3F8B4
:105D00005821C3F84811C3F84821C3F83811C3F823
:105D10003821C3F82811C3F828213F4AC3F8F420DA
:105D20003E4AC3F8F4203E4AC3F8F0203D4A1A60C8
:105D30003D4A1A603D4A9A603D4A9A603D4FDF6095
:105D40003D4EDE603D4B3E4A1A601E603D4C3E4B70
:105D500023623E4B63623E4B63623E4B23623E4D89
:105D60003E4BC5F8483105F5A670FFF7A5FE3C4B44
:105D7000C5F848313B4BC4F82C313B4BC4F82C31AF
:105D80003A4BC4F894323A4BC4F80033394BC4F858
:105D90000033394AC4F80023384BC4F8003338497B
:105DA000C4F8D0123749C4F8D012C4F8D022C4F8CD
:105DB000D0323549C4F8A0123449C4F8A012C4F84E
:105DC000A022C4F8A032324BC4F89432314BC4F84C
:105DD00070322033C4F87C322F4BC4F87C322F4B06
:105DE000C4F87032C4F87472C4F8746205F5807037
:105DF00039F0E8FB2A482B4B0360FEF707FFF8BD9C
:105E000000280120203D0608CC950508B49505081A
:105E10009C950508849505086C950508549505081A
:105E2000E494050800970508E4960508D09605084F
:105E3000AC26060894260608549405080080002025
:105E40007C26060810910020AC960508849605086B
:105E50005C960508E495050818800020F03B0608CC
:105E60006C940508143C0608A4940508343A060806
:105E7000409405082C9405088C9305087C9305082C
:105E80001894050804940508F0930508DC930508A8
:105E90009C9305087C320608C0930508342906083F
:105EA000104101209094050808B536F0FAF808BDB5
:105EB00008B51F4B186836F05FFC034648B183B144
:105EC000BBB1F3B12BB3E0221A491B4836F0ECFD0D
:105ED000F9E708221949164B186836F017FC0346F3
:105EE000EDE702221649124B186836F00FFC034604
:105EF000E6E7052213490E4B186836F007FC034607
:105F0000DFE7072210490A4B186836F0FFFB03460B
:105F1000D8E730F0D9FD0D4837F0A8FB33F010F882
:105F200033F08EFA00F092FA30F02CFCCBE700BF91
:105F3000003C01202097050838970508759D030847
:105F400079860308E930000881300008814B000899
:105F500030B585B0414B00225A60042199601A7314
:105F600019463F4841F8140B19613E4919603E4BF0
:105F700000E0013213F8011B0029FAD13A4C144415
:105F8000002A0EDB354B00225A601B7B13F0020FF8
:105F900032D032490A690023134489680A44D21A6C
:105FA00027E0324B0193324B029340F2EF230393ED
:105FB000304B1B68BFF35B8F13F0010F08D02E4BE3
:105FC0005B68002BDED001A92B4A10689847D9E7FF
:105FD000284850F060FD0028F1D0274B00221A60BD
:105FE0005A60244850F063FDE9E7002203F8012BD2
:105FF0000A46511E002AF8D1184B1A690021117067
:106000001A7B22F001021A73174B06E01349086944
:10601000551C4D6013F8011B81549C4204D00F495C
:106020004A6889688A42F1D10C4A11695268002095
:1060300088549C4206D0094A137B43F00103137332
:1060400005B030BD054A137B23F001031373F7E756
:106050000248FEF7DBFD50F0C5F900BF58410120B2
:1060600068930508909405085C930508409005081E
:1060700050900508044101200841012008B503485B
:10608000034B0360FEF7C2FD08BD00BF584101206D
:1060900090940508044A02608268C260034A026064
:1060A000034A0260704700BFEC980508EC970508AA
:1060B0007C930508044A02608268C260034A026059
:1060C000034A0260704700BF00990508EC97050875
:1060D0007C930508044A0260044A0260044A026094
:1060E000044A0260704700BF809805086C98050854
:1060F0008C9305087C930508044A0260044A0260F8
:10610000044A0260044A0260704700BF3C980508D8
:10611000289805088C9305087C930508024A0260BC
:10612000024A0260704700BFC099050884990508BB
:10613000024A0260024A0260704700BFD499050813
:106140008499050800F11003C2688168521A8360BF
:106150001344C360704700F11003C2688168521A8B
:1061600083601344C360704700F11003C268816804
:10617000521A83601344C360704700F11003C26871
:106180008168521A83601344C360704710B5044697
:10619000064B0360064B0360064B0360064B03602F
:1061A000242150F01DF9204610BD00BF3C98050881
:1061B000289805088C9305087C93050810B50446BB
:1061C000064B0360064B0360064B0360064B0360FF
:1061D000502150F005F9204610BD00BF80980508F9
:1061E0006C9805088C9305087C93050810B5044647
:1061F000064B03608368C360054B0360054B036077
:10620000302150F0EDF8204610BD00BF0099050880
:10621000EC9705087C93050810B50446064B03600F
:106220008368C360054B0360054B03602C2150F06D
:10623000D7F8204610BD00BFEC980508EC9705087C
:106240007C93050810B50446044B0360044B0360BF
:10625000082150F0C5F8204610BD00BFD4990508AC
:106260008499050810B50446044B0360044B036091
:10627000082150F0B5F8204610BD00BFC0990508B0
:106280008499050808B540684FF05AFE08BD08B566
:1062900040684FF05CFE08BD10B58AB00446194B4B
:1062A0000193194B029340F69C130393174B1B6801
:1062B000BFF35B8F13F0010F17D0154B5B681BB159
:1062C00001A9134A1068984704F12C03A3622269BC
:1062D0000792089409936461A361E26904920594AA
:1062E0000693246263620AB010BD084850F0D3FBE5
:1062F0000028E2D0064B00221A605A60034850F092
:10630000D6FBDAE764970508709705080441012079
:106310000841012010B586B00446164B03600CE01E
:10632000013BE361606A6C2202FB03F3C25812680E
:10633000184490476368013B6360636833B1E36965
:10634000002BEDD1236ADB68013BEAE7A36A002258
:1063500003920494059322616461A3610092019405
:106360000293E26124626362034B2360204606B01D
:1063700010BD00BFFC990508E899050810B586B066
:106380000446184B03600CE0013BE361606A6C2239
:1063900002FB03F3C2581268184490476368013B3C
:1063A0006360636833B1E369002BEDD1236ADB6876
:1063B000013BEAE7A36A0022039204940593226159
:1063C0006461A361009201940293E26124626362BA
:1063D000054B236040F2EC61204650F001F8204666
:1063E00006B010BDFC990508E899050810B50446EB
:1063F00000210AF039FE002384F8A03028F0B6F816
:1064000004E020460AF05AFE4FF0ECFFC4F8A40066
:10641000002384F8A830204610BD000010B50446C3
:10642000084B0360084B036028F0A0F8606004F19B
:10643000080041F0E5FD03E0024B23604FF0D2FF7E
:10644000204610BD50980508489A050808B50E4B1F
:1064500003F13C011A4642F8E81B5A6003F55072FA
:106460009A6003F23452DA6003F542621A6103F66D
:1064700068725A61054AA2F188011963703A9A63F9
:10648000034837F0CDF808BD5096002048A70020FB
:1064900098A3050838B50446022906D003291ED062
:1064A000012922D0002303701FE03BF0C0FEA36847
:1064B000E268C01A61EB0201238A83424FF00003B5
:1064C0008B4112D20A4DA86A03685B690021984784
:1064D000A86A03681B6998470123237005E03BF015
:1064E000A6FEC4E9020100232370207838BD00BF56
:1064F0005096002041807047B0F90200704710B5F7
:1065000086B004460CE0013BE361606A6C2202FB4A
:1065100003F3C2581268184490476368013B6360F4
:10652000636833B1E369002BEDD1236ADB68013B7B
:10653000EAE7A36A00220092019402932261646157
:10654000A361039204940593E2612462636206B03E
:1065500010BD00002DE9F04F87B0019090460F6804
:10656000836800210C460D46009110E0E64502D2FA
:1065700001227A7214E03A68B2FA82F252097A720F
:106580003D4600940CE03B4621463C461746FFB191
:1065900098F800C097F80CE0E645E7D900227A7237
:1065A00097F809C057F82C2092B197F808E0BEF18F
:1065B000020FE8D0CCF1010CE645E6D157F82CC02B
:1065C0009CF808C0BCF1020FDFD13B462146DCE756
:1065D00045B99FE1C8F1010883F808805A7A194645
:1065E00053F82230002B00F0398193F8098053F8DA
:1065F0002820002A00F032811A7A022AEAD0904537
:1066000036D0C8F1010253F822C09CF8082090450A
:1066100031D0022A00F0C180002900F0FE8091F8FC
:1066200009C0C8F101085FFA88F851F82C2052F827
:106630002870C8F1010957F8296042F8286051F81C
:106640002CE047F829E002228EF8082041F82C704F
:106650003A729D42C2D1002900F0F7804A7A51F87F
:10666000221000910A68521B18BF01224A72B5E736
:1066700002221A72B2E7002942D04A7A01EB820E56
:10668000C8F10107FFB25CF828C09CF808A051F8D7
:10669000222052F82720C7F1010952F829C0BAF187
:1066A000020F75D0574570D0BB4682F808B0DEF8AF
:1066B000002052F827205CF8276042F82960DEF8B5
:1066C000002052F827204CF82720BAF1020F03D0FF
:1066D000574560D04FF0020ADEF8002082F808A08B
:1066E000DEF800205CF8296042F82760DEF8002020
:1066F0004CF82920CEF800C002228CF80820A8E728
:10670000C8F10102D2B25CF8287097F808C001986D
:10671000876857F82290C2F1010E59F82E70BCF12B
:10672000020F2DD0624528D0924689F808A0019822
:10673000866856F8229057F8226049F82E60D0F803
:10674000089059F8226047F82260BCF1020F03D08C
:10675000624518D04FF0020C0198866886F808C090
:10676000866857F82E0046F822000198826847F89C
:106770002E20876002223A726BE74FF0020AD4E7BC
:106780004FF0020AD1E7C446E6E74FF0020B8CE770
:106790004FF0020B89E7C2469EE719B391F809C092
:1067A000C8F101085FFA88F851F82C2052F82870D7
:1067B000C8F1010957F8296042F8286051F82CE027
:1067C00047F829E002228EF8082041F82C703A722E
:1067D0004A7A51F822205F7A17725A7AC2F101027E
:1067E0001A7236E7C8F101085FFA88F8019EB268AC
:1067F00052F82870C8F1010E57F82E0042F8280010
:10680000D6F808C047F82EC002228CF80820B760DE
:106810003A72B2685F7A1772DFE7C8F101085FFA6F
:1068200088F80198826852F82870C8F1010E57F86C
:106830002E6042F82860D0F808C047F82EC0022227
:106840008CF8082087603A7203E7019A91680091FA
:106850000A68521B18BF01224A72BFE6009828B38B
:10686000417A677A50F8212054F8273040F82130D7
:10687000597AC1F1010153F8211044F82710116829
:10688000196051685960127A1A72019A1368013BB3
:106890001360D4682368EB1A26D462692169013A2F
:1068A00001FB02F2934229DD00221EE09CB1667AD0
:1068B00001998A6854F826308B60597AC1F1010138
:1068C00053F8211044F82610116819605168596076
:1068D000127A1A72D9E701998A68537AC3F10103CF
:1068E00052F823308B60D0E700222169B3FBF1F02E
:1068F00001FB103322B123B1002202E00122F4E7B0
:1069000000225AB16368002B2CD02B606560A3680D
:10691000013BA360284607B0BDE8F08F134B0393FB
:10692000134B049340F27D130593124B1B68BFF386
:106930005B8F13F0010F08D00F4B5B68002BE1D089
:1069400003A90D4A10689847DCE70A4850F0A3F8FD
:106950000028F1D0084B00221A605A60054850F018
:10696000A6F8E9E700232B60D0E700BF20930508D5
:1069700034930508044101200841012070B58EB010
:106980000446836800E0134613B11A68002AFAD15E
:10699000029403930094019326E0019A002A2BD1DC
:1069A0000EB070BD043304E00BD92B462AE004F18D
:1069B00008031B68069407931A4653B15E681EB914
:1069C0003AE00B46F5E71E4616B13368002BFAD1C4
:1069D0000796099A0C322046FFF7BCFD069A0492EE
:1069E000079B0593009201930C9400230D930A9446
:1069F0000B93009B9C42D0D00893019A099204F11A
:106A00000801A368002BD2D018688242D1D05D68FB
:106A1000AA42C7D092F80CC01B7B9C45C4D2034647
:106A2000F0E7334603E00FD92B460DE01346DBB108
:106A30005868824218D11A460792A368002BF6D0F4
:106A4000002AF3D09A42ECD0002BF0D01868824292
:106A5000EDD05D68AA42EAD092F80CE093F80CC041
:106A6000E645E0D20346EFE70793B2E730B587B0DB
:106A7000454C04F13C052846FFF7B8FC294604F1D3
:106A8000E80001F0B3FE04F55070FFF7C7FC0023E7
:106A9000C4F838350F22C4F83C251022C4F840252C
:106AA0003A4AC4F83425C4F84435C4F84835C4F823
:106AB0004C35C4F85035C4F85435C4F8583504F58D
:106AC000AC63C4F85C35324BC4F8343511E0013B9B
:106AD0002D4CC4F85035D4F858056C2202FB03F352
:106AE000C258126818449047D4F83835013BC4F8AE
:106AF0003835254BD3F8383553B1234BD3F85035BF
:106B0000002BE4D1204BD3F85435DB68013BDFE7A1
:106B10001D4CD4F85C350025009504F234520192E6
:106B20000293C4F84455C4F84825C4F84C3503957D
:106B300004920593C4F85055C4F85425C4F8583548
:106B400004F542602FF028FAC4F8685F0B23C4F8FC
:106B50006C3FC4F8705F04F67C72C4F8742F04F6BE
:106B60009472C4F87C2FC4F8802FC4F8845FC4F8F2
:106B7000885F1422C4F88C2FC4F8903F04F6687024
:106B8000FFF7FCFE07B030BD50960020E8990508DD
:106B9000FC99050870B584B0CB4C04F66870FFF71B
:106BA000EDFECA4BC4F8583EC94EC4F8FC6EC94A43
:106BB000C4F8382FD4F8403FC4F8443FC64BC4F85B
:106BC000383FC64DC4F8385FC548C4F8040FD4F840
:106BD0000C1FC4F8101FC4F8043FC4F8045FC14977
:106BE000C4F8FC1EC4F8906EC4F8CC2ED4F8D46E51
:106BF000C4F8D86EC4F8CC3EC4F8CC5EC4F8980E85
:106C0000D4F8A00EC4F8A40EC4F8983EC4F8985E58
:106C1000C4F8901EB449C4F8581EB449C4F89C1D69
:106C2000B349C4F8481EB349C4F8481EB248C4F872
:106C3000400EC4F8401EC4F8D02DD4F8D81DC4F8B6
:106C4000DC1DC4F8D03DC4F8D05DC4F8A02DD4F844
:106C5000A81DC4F8AC1DC4F8A03DC4F8A05DA749A8
:106C6000C4F89C1DA649C4F8901DA649C4F8901DFF
:106C7000A548C4F8880DA549C4F8881DC4F8800D3E
:106C8000C4F8801DA249C4F8201C5831C4F8241C43
:106C9000C4F84C2DD4F8542DC4F8582DC4F84C3DEC
:106CA000C4F84C5D04F5426037F062FE994BC4F8BD
:106CB000343504F23450FFF722FC974BC4F83435D6
:106CC000964BC4F8403304F5527041F095F8944B5C
:106CD000C4F84033934BC4F8EC32934BC4F8EC3215
:106CE000924AC4F8EC22C4F8EC52914BC4F8E43256
:106CF000904BC4F8E4329049C4F880128F49C4F82C
:106D0000C0128F49C4F8C012C4F8C022C4F8C052DF
:106D10008C4AC4F8B8228C4AC4F8B8228B49C4F80B
:106D2000B012C4F8B0228A49C4F8A412C4F8A4224C
:106D30008849C4F89812C4F898228749C4F8841284
:106D4000C4F88422C4F880328449C4F858128449B3
:106D5000C4F86012C4F86022C4F858328149C4F8FB
:106D600038128149C4F84012C4F84022C4F83832BD
:106D70007E49C4F810127E49C4F81812C4F81822CB
:106D8000C4F810327B49C4F8FC117B49C4F80412E2
:106D9000C4F80422C4F8FC317849C4F8E8117849F1
:106DA000C4F8EC11C4F8EC21C4F8E8317549C4F812
:106DB000D8117549C4F8E011C4F8E021C4F8D831FD
:106DC0007249C4F8C0117249C4F8C811C4F8C82186
:106DD000C4F8C0316F49C4F8A4116F49C4F8AC11AC
:106DE000C4F8AC21C4F8A4316C4AC4F89C21C4F89E
:106DF0009C316B4AC4F89421C4F89431694AC4F8B0
:106E00008821C4F88831684AC4F88021C4F88031E8
:106E1000664BC4F810312C4BD3F87021D3F8743181
:106E20009A4239D0284BD3F87021D3F874319A4262
:106E30000ED0254AD2F874310133C2F87431D2F839
:106E40006C219342E7D1204B0022C3F87421E2E782
:106E5000574B0193574B029340F2A5330393564B84
:106E60001B68BFF35B8F13F0010F08D0534B5B68B7
:106E7000002BDED001A9514A10689847D9E74E4847
:106E80004FF009FE0028F1D04C4B00221A605A60E6
:106E900049484FF00CFEE9E70B4C04F58C7038F0D4
:106EA0004DFE244BC4F81031454AC4F8F820C4F80C
:106EB000F830444AC4F8F020C4F8F03004F13C0043
:106EC0000AF0FCF804B070BD509600207852060815
:106ED0003454060800990508EC9705087C930508CA
:106EE000EC9805089498050814990508F0540608CC
:106EF000D499050884990508C099050838990508AA
:106F00008C540608689905080C2906089899050804
:106F1000D82B0608FC990508E8990508489A050841
:106F200050980508809805086C9805088C9305080A
:106F3000709D050800980508849D05083C98050883
:106F400028980508989F0508149805080CA10508BD
:106F500020A10508E4A00508AC9F05085C9D050874
:106F6000D49F0508489D0508FC9F0508209D05083D
:106F7000F8A005080C9D0508BCA00508F89C0508AC
:106F8000D0A00508CC9B0508A8A00508A49B05086F
:106F9000C09F0508909B0508E89F05087C9B050895
:106FA000B89B0508349D0508689B0508E49C050806
:106FB00098970508B0970508044101200841012071
:106FC000549B0508409B050810B50446D0F8940072
:106FD00003685B69002205219847D4F89000036894
:106FE0001B69984710BD0000024A0260024A026015
:106FF000704700BF2C9A0508109A050810B5044682
:10700000044B0360044B03609C214FF0E9F92046D8
:1070100010BD00BF2C9A0508109A050870B50446EB
:107020000E4615460D4B03600D4B40F8043B88227D
:107030000C4951F0D7FA0023C4F88C30C4F89060A2
:10704000C4F8945027F092FA03E0044B23604FF009
:10705000C9F9C4F89800204670BD00BF109A050811
:107060002C9A05087887050800234FF0FF304FF071
:107070000A0C00E00133212B0BDC01EB8302D278F8
:10708000002AF7D011F823206245F3DA1846944617
:10709000F0E7704770B500EB8103DB791646003AE4
:1070A00018BF012293421FD004460D46D0F890002D
:1070B0000368DB6832469847012E16D004EB85053D
:1070C0000023EB71211D2046FFF7CEFF0346B0F1F0
:1070D000FF3F0FD0D4F8940004EB830403685B698E
:1070E000A27994F90510984770BD04EB850501233A
:1070F000EB71E7E7D4F8940003685B69022205218D
:107100009847F1E730B585B0414B00225A60042121
:1071100099601A7319463F4841F8140B19613E49AA
:1071200019603E4B00E0013213F8011B0029FAD12F
:107130003A4C1444002A0EDB354B00225A601B7B6C
:1071400013F0020F32D032490A69002313448968D0
:107150000A44D21A27E0324B0193324B029340F299
:10716000EF230393304B1B68BFF35B8F13F0010FCA
:1071700008D02E4B5B68002BDED001A92B4A10688B
:107180009847D9E728484FF086FC0028F1D0274BD4
:1071900000221A605A6024484FF089FCE9E7002277
:1071A00003F8012B0A46511E002AF8D1184B1A6920
:1071B000002111701A7B22F001021A73174B06E0AE
:1071C00013490869551C4D6013F8011B81549C42FA
:1071D00004D00F494A6889688A42F1D10C4A116982
:1071E0005268002088549C4206D0094A137B43F021
:1071F0000103137305B030BD054A137B23F001036F
:107200001373F7E70248FDF701FD4FF0EBF800BFFD
:107210007441012068930508909405085C93050863
:1072200040900508509005080441012008410120C4
:1072300008B50348034B0360FDF7E8FC08BD00BF39
:10724000744101209094050830B583B004460D4682
:10725000D0F8940003685B69022205219847002357
:107260008DF80730D4F89830D3F8EC0003681B6C25
:107270000DF1070198479DF80730012B1CD02DB95F
:107280002368DB6801221F212046984700238DF8E0
:107290000630D4F89830586803681B6C0DF106016D
:1072A00098479DF806302BB12368DB680122062140
:1072B0002046984703B030BD084839F059FF30B137
:1072C0002368DB680122172120469847D7E7034847
:1072D00039F035FF0028D2D0F2E700BF98B800207F
:1072E00010B5044627F042F920602146002341F8FA
:1072F000043FD0F89C0003681B6C9847204610BDE3
:1073000008B54368194209D159404160014651F816
:10731000043BD3F89C0003685B6C984708BD08B534
:107320004368194209D059404160014651F8043B75
:10733000D3F89C0003685B6C984708BD38B50446D9
:107340000D46014651F8043BD3F89C0003681B6CC2
:10735000984763682B4201D1002038BD0120FCE72B
:1073600010B50446083040F0E5FB18B9002384F856
:10737000503010BD04F1080040F024FF84F85000A4
:10738000F7E7F0B583B005460C461646002701978F
:107390004368D3F8000103681B6C01A99847009764
:1073A0006B68D3F8C40003681B6C69469847009B60
:1073B00004EB032404EB064405F10806304640F0D4
:1073C00063FD0746304640F0FBFE874209D0224667
:1073D0000199304640F036FE304640F0EBFE03B0F7
:1073E000F0BD95F850104B1C85F850302346019A9B
:1073F000304640F06BFE304640F046FD95F8503088
:107400008342E9D3002385F85030E5E708B508301A
:1074100040F07DFD08BD000010B50446044B40F867
:10742000083B40F0E9FC034B2360204610BD00BF41
:10743000489A05085098050810B50446064B40F8D0
:10744000083B40F0D9FC054B23604FF4FA7120460D
:107450004EF0C6FF204610BD489A05085098050812
:1074600010B584B00446002303938DF80B300193CC
:107470004368D86E03681B6C0DF10B019847636875
:10748000186F036C1B6C01A9403098476368D3F8F0
:10749000880003681B6C03A99847237A43B99DF8B9
:1074A0000B301BB1019BE3600123237204B010BDBC
:1074B0009DF80B30002BF9D1E268019B9B1A002B41
:1074C000B8BF5B42039A134403936368D3F8880000
:1074D00003685B6C03A9984700232372E6E700006A
:1074E000024A0260024A0260704700BF789A0508AB
:1074F000649A050810B50446044B0360044B03600E
:1075000010214EF06DFF204610BD00BF789A05088F
:10751000649A0508044A0260044A0260416000223D
:107520000272C260704700BF649A0508789A050825
:10753000024A0260024A0260704700BFA89A05082A
:107540008C9A050810B50446044B0360044B036095
:1075500044214EF045FF204610BD00BFA89A050803
:107560008C9A050800B583B000230193036C186F53
:10757000036C1B6C01A9403098470198044B83FBB6
:107580000023C017C0EBA300019003B05DF804FB1B
:107590006766666670B50446FFF7E4FFE36A5B4220
:1075A00083426DDA40F2CA236360236C986E0368ED
:1075B0001B6C04F114019847636913F10A0F7ADB1D
:1075C000162B7BDC63616068C117A268D31700FBD0
:1075D00003F302FB0133A0FB020213443A4AA0FB6F
:1075E000020102FB0311E36825696669A26906FBD3
:1075F0000522D617A3FB022503FB0655E3694FEAD4
:10760000E37C02FB0CFC03FB05CCA2FB033294449D
:107610004FEAEC7505F0210EC3F313021E0D46EA86
:107620000C36C6F313063244CCF31326324402EB75
:107630001C727244254EA6FB026E4FEADE0E0EEB64
:107640008E0E0EEB8E0EA2EB0E0225F017052A44CD
:107650009B1A6CEBE27C1E4A1E4D03FB05F502FBF8
:107660000C55A3FB02322A441546002A28DB9A084F
:1076700042EA8572AB10FCF717FB236A184470BD11
:10768000236B5B42834212DA0028B8BF40426FF09E
:10769000A80303FB00F000F5283000F540700B4B09
:1076A00083FB0023C017C0EB631060607DE74FF4DD
:1076B000BC73636079E76FF0090383E7162381E702
:1076C000033342F10005D2E700CA9A3B1F85EB5114
:1076D000295C8FC2F5285C8F70B50446FFF742FF26
:1076E000636B5B42834274DA94F83C30002B6DD0BC
:1076F00040F2CA236360236C986E03681B6C04F12C
:1077000014019847636913F10A0F66DB162B67DCD7
:1077100063616068C117A268D31700FB03F302FB23
:107720000133A0FB02021344304AA0FB020102FB1A
:107730000311E36825696669A26906FB0522D6176D
:10774000A3FB022503FB0655E3694FEAE37C02FB3A
:107750000CFC03FB05CCA2FB033294444FEAEC750E
:1077600005F0210EC3F313021E0D46EA0C36C6F3D4
:1077700013063244CCF31326324402EB1C727244DB
:107780001B4EA6FB026E4FEADE0E0EEB8E0E0EEBCC
:107790008E0EA2EB0E0225F017052A449B1A6CEB05
:1077A000E27C144A144D03FB05F502FB0C55A3FBC8
:1077B00002322A441546002A14DB9A0842EA8572EE
:1077C000AB10FCF771FA236A184470BD4FF4BC7318
:1077D00090E740F2CA2363608DE76FF0090397E7F3
:1077E000162395E7033342F10005E6E700CA9A3B0A
:1077F0001F85EB51295C8FC2F5285C8F70B582B074
:107800000446FFF7AFFE0546236C586803681B6CFF
:107810000DF1070198479DF80720A36B5B42AB422F
:1078200079DA94F83C3023B9002A71D040F2CA23A7
:1078300001E040F2CA236360236C986E03681B6CFE
:1078400004F114019847636913F10A0F67DB162BE3
:1078500068DC63616068C117A268D31700FB03F39B
:1078600002FB0133A0FB02021344314AA0FB0201D8
:1078700002FB0311E36825696669A26906FB05221C
:10788000D617A3FB022503FB0655E3694FEAE37C09
:1078900002FB0CFC03FB05CCA2FB033294444FEA31
:1078A000EC7505F0210EC3F313021E0D46EA0C36EB
:1078B000C6F313063244CCF31326324402EB1C7297
:1078C00072441C4EA6FB026E4FEADE0E0EEB8E0ECD
:1078D0000EEB8E0EA2EB0E0225F017052A449B1A22
:1078E0006CEBE27C144A154D03FB05F502FB0C55CD
:1078F000A3FB02322A441546002A15DB9A0842EA05
:107900008572AB10FCF7D0F9236A184402B070BD41
:107910004FF4BC738FE740F2CA2363608CE76FF0CB
:10792000090396E7162394E7033342F10005E5E7E0
:1079300000CA9A3B1F85EB51295C8FC2F5285C8FEA
:1079400010B50446374B0360002343608360012277
:10795000C260026142618261C2610362436283620A
:10796000314A02604FF41672C2624FF448720263E9
:107970001E224263826380F83C3026F0F7FD2064CB
:10798000214642F6497341F8083FD0F81C01036CC8
:107990005B6C40309847254B2361236CD3F81C0166
:1079A000036F5B6C04F1100170309847204BA361AA
:1079B000236CD3F81C01D0F880305B6C04F1180103
:1079C0008030984749F6D923E361236CD3F81C0132
:1079D000036D5B6C04F11C015030984740F28D132D
:1079E0002362236CD3F81C01036E5B6C04F120014D
:1079F00060309847236CD3F81C01036A1B6C04F1B8
:107A00000C0120309847236CD86903681B6C04F183
:107A10003C01984703E0034B23604EF0E3FC204613
:107A200010BD00BF8C9A0508A89A0508921701009E
:107A30009A8F8000024A0260024A0260704700BFCB
:107A4000C49A05088C9A050810B50446044B0360D7
:107A5000044B03603C214EF0C3FC204610BD00BF28
:107A6000C49A05088C9A050870B504464FF48773CC
:107A70004360836B986E03681B6C04F11401984794
:107A8000636913F10A0F5FDB162B60DC63616068CA
:107A9000C117A268D31700FB03F302FB0133A0FB5D
:107AA000020213442D4AA0FB020102FB0311E3680A
:107AB00025696669A26906FB0522D617A3FB022584
:107AC00003FB0655E3694FEAE37C02FB0CFC03FB76
:107AD00005CCA2FB033294444FEAEC7505F0210E6D
:107AE000C3F313021E0D46EA0C36C6F313063244E6
:107AF000CCF31326324402EB1C727244184EA6FBE0
:107B0000026E4FEADE0E0EEB8E0E0EEB8E0EA2EB29
:107B10000E0225F017052A449B1A6CEBE27C114AF1
:107B2000114D03FB05F502FB0C55A3FB02322A4461
:107B30001546002A0DDB9A0842EA8572AB10FCF765
:107B4000B3F8236A184470BD6FF009039EE716234B
:107B50009CE7033342F10005EDE700BF00CA9A3B02
:107B60001F85EB51295C8FC2F5285C8F00B583B06F
:107B700000230193836B186F036C1B6C01A94030C9
:107B80009847019803B05DF804FB000070B5044607
:107B9000FFF7ECFF444B83FB0023C017C0EBA300AF
:107BA000E36A984273DA94F83430002B6DD04FF4C6
:107BB00087736360A36B986E03681B6C04F11401F8
:107BC0009847636913F10A0F65DB162B66DC636166
:107BD0006068C117A268D31700FB03F302FB0133EF
:107BE000A0FB02021344314AA0FB020102FB031175
:107BF000E36825696669A26906FB0522D617A3FB1F
:107C0000022503FB0655E3694FEAE37C02FB0CFC0B
:107C100003FB05CCA2FB033294444FEAEC7505F05C
:107C2000210EC3F313021E0D46EA0C36C6F31306EB
:107C30003244CCF31326324402EB1C7272441C4EC5
:107C4000A6FB026E4FEADE0E0EEB8E0E0EEB8E0ED4
:107C5000A2EB0E0225F017052A449B1A6CEBE27C7E
:107C6000144A154D03FB05F502FB0C55A3FB02322C
:107C70002A441546002A13DB9A0842EA8572AB10A3
:107C8000FCF712F8236A184470BDBC2391E74FF447
:107C9000877363608EE76FF0090398E7162396E712
:107CA000033342F10005E7E76766666600CA9A3B60
:107CB0001F85EB51295C8FC2F5285C8F70B582B0AF
:107CC0000446FFF753FF0546A36B586803681B6C17
:107CD0000DF1070198479DF80720474B83FB0513DB
:107CE000ED17C5EBA305236B9D4278DA94F8343089
:107CF00023B9002A71D04FF4877301E04FF48773E2
:107D00006360A36B986E03681B6C04F114019847C1
:107D1000636913F10A0F66DB162B67DC6361606829
:107D2000C117A268D31700FB03F302FB0133A0FBCA
:107D300002021344314AA0FB020102FB0311E36873
:107D400025696669A26906FB0522D617A3FB0225F1
:107D500003FB0655E3694FEAE37C02FB0CFC03FBE3
:107D600005CCA2FB033294444FEAEC7505F0210EDA
:107D7000C3F313021E0D46EA0C36C6F31306324453
:107D8000CCF31326324402EB1C7272441C4EA6FB49
:107D9000026E4FEADE0E0EEB8E0E0EEB8E0EA2EB97
:107DA0000E0225F017052A449B1A6CEBE27C154A5B
:107DB000154D03FB05F502FB0C55A3FB02322A44CB
:107DC0001546002A14DB9A0842EA8572AB10FBF7CD
:107DD0006BFF236A184402B070BDBC2390E74FF4D8
:107DE000877363608DE76FF0090397E7162395E7C4
:107DF000033342F10005E6E76766666600CA9A3B10
:107E00001F85EB51295C8FC2F5285C8F10B50446A5
:107E1000334B03600023436083600122C260026130
:107E200042618261C2610362436283622D4A0260E1
:107E30000222C262026380F8343026F097FBA0630E
:107E40002146294B41F8083FD0F81C01036C5B6CBC
:107E500040309847254B2361A36BD3F81C01036F77
:107E60005B6C04F1100170309847214BA361A36B48
:107E7000D3F81C01D0F880305B6C04F1180180301D
:107E800098471C4BE361A36BD3F81C01036D5B6C3B
:107E900004F11C015030984740F28D132362A36B0C
:107EA000D3F81C01036E5B6C04F12001603098472D
:107EB000A36BD3F81C01036A1B6C04F10C01203086
:107EC0009847A36BD86903681B6C04F13401984789
:107ED00003E0034B23604EF085FA204610BD00BF3F
:107EE0008C9A0508C49A050840420F0092170100B9
:107EF0009A8F8000DC7B1600024A0260024A026010
:107F0000704700BFE09A05088C9A050810B5044632
:107F1000044B0360044B036044214EF061FA204699
:107F200010BD00BFE09A05088C9A050800B583B023
:107F300000230193036C186F036C1B6C01A9403084
:107F400098470198044B83FB0023C017C0EBA300A4
:107F5000019003B05DF804FB6766666670B5044681
:107F6000FFF7E4FFE36A83426CDBFE236360236C6C
:107F7000986E03681B6C04F114019847636913F150
:107F80000A0F73DB162B74DC63616068C117A2688B
:107F9000D31700FB03F302FB0133A0FB02021344DF
:107FA000374AA0FB020102FB0311E36825696669F9
:107FB000A26906FB0522D617A3FB022503FB065583
:107FC000E3694FEAE37C02FB0CFC03FB05CCA2FB5C
:107FD000033294444FEAEC7505F0210EC3F313020B
:107FE0001E0D46EA0C36C6F313063244CCF31326B4
:107FF000324402EB1C727244224EA6FB026E4FEA20
:10800000DE0E0EEB8E0E0EEB8E0EA2EB0E0225F0A8
:1080100017052A449B1A6CEBE27C1B4A1B4D03FBA1
:1080200005F502FB0C55A3FB02322A441546002A33
:1080300021DB9A0842EA8572AB10FBF735FE236A12
:10804000184470BD236B83420DDB6FF036024AF299
:10805000AC3302FB00330B4A82FB0312DB17C3EB8A
:108060006213636083E79023636080E76FF0090326
:108070008AE7162388E7033342F10005D9E700BFFA
:1080800000CA9A3B1F85EB51295C8FC2F5285C8F93
:1080900070B50446FFF74AFF636B834273DD94F8C3
:1080A0003C30002B6DD040F26D136360236C986EF2
:1080B00003681B6C04F114019847636913F10A0FFC
:1080C00065DB162B66DC63616068C117A268D31795
:1080D00000FB03F302FB0133A0FB02021344304A0E
:1080E000A0FB020102FB0311E36825696669A2692E
:1080F00006FB0522D617A3FB022503FB0655E36901
:108100004FEAE37C02FB0CFC03FB05CCA2FB033231
:1081100094444FEAEC7505F0210EC3F313021E0DD3
:1081200046EA0C36C6F313063244CCF31326324427
:1081300002EB1C7272441B4EA6FB026E4FEADE0E6F
:108140000EEB8E0E0EEB8E0EA2EB0E0225F0170537
:108150002A449B1A6CEBE27C134A144D03FB05F591
:1081600002FB0C55A3FB02322A441546002A13DBFE
:108170009A0842EA8572AB10FBF796FD236A184411
:1081800070BDFE2391E740F26D1363608EE76FF0E0
:10819000090398E7162396E7033342F10005E7E762
:1081A00000CA9A3B1F85EB51295C8FC2F5285C8F72
:1081B00070B582B00446FFF7B9FE0546236C5868D7
:1081C00003681B6C0DF1070198479DF80720A36B0E
:1081D000AB4278DD94F83C3023B9002A71D040F2EC
:1081E0006D1301E040F26D136360236C986E0368B9
:1081F0001B6C04F114019847636913F10A0F66DBE5
:10820000162B67DC63616068C117A268D31700FB97
:1082100003F302FB0133A0FB02021344304AA0FB2C
:10822000020102FB0311E36825696669A26906FB86
:108230000522D617A3FB022503FB0655E3694FEA87
:10824000E37C02FB0CFC03FB05CCA2FB0332944451
:108250004FEAEC7505F0210EC3F313021E0D46EA3A
:108260000C36C6F313063244CCF31326324402EB29
:108270001C7272441B4EA6FB026E4FEADE0E0EEB22
:108280008E0E0EEB8E0EA2EB0E0225F017052A4481
:108290009B1A6CEBE27C144A144D03FB05F502FBC0
:1082A0000C55A3FB02322A441546002A14DB9A0817
:1082B00042EA8572AB10FBF7F7FC236A184402B060
:1082C00070BDFE2390E740F26D1363608DE76FF0A1
:1082D000090397E7162395E7033342F10005E6E724
:1082E00000CA9A3B1F85EB51295C8FC2F5285C8F31
:1082F00010B50446364B03600023436083600122BF
:10830000C260026142618261C26103624362836250
:10831000304A02604FF49672C2624FF4FA720263FE
:108320001E224263826380F83C3026F01FF92064ED
:10833000214642F6627341F8083FD0F81C01036CF5
:108340005B6C40309847244B2361236CD3F81C01AD
:10835000036F5B6C04F11001703098471F4BA361F1
:10836000236CD3F81C01D0F880305B6C04F1180149
:10837000803098474CF6A923E361236CD3F81C01A5
:10838000036D5B6C04F11C0150309847DC232362C1
:10839000236CD3F81C01036E5B6C04F12001603088
:1083A0009847236CD3F81C01036A1B6C04F10C0181
:1083B00020309847236CD86903681B6C04F13C019A
:1083C000984703E0024B23604EF00CF8204610BDA6
:1083D0008C9A0508E09A0508C3180100BE75800054
:1083E00030B583B004460D464368586803681B6C7B
:1083F0000DF1070198476368D3F8D00003681B6C40
:108400000DF1060198479DF8073013B99DF8063025
:10841000A3B10122082120680AF09AF89DF80630DD
:1084200053B100238DF806306368D3F8D000036899
:108430005B6C0DF10601984703B030BD2A4605215B
:1084400020680AF085F8F7E730B58DB00446644B34
:108450000360644B03600122027100234371827147
:108460008360C36026F082F8206104F114055C4B40
:1084700063615D4B636126F079F8686000232B72BD
:1084800004F12005564B2362584B236226F06EF808
:1084900003E0534B23604DF0A5FF6860FF232B7270
:1084A00004F12C054E4BE362514BE36226F05EF87B
:1084B00007E04B4B63614B4B2360494B23604DF00E
:1084C00091FF686004F13405454B6363494B636376
:1084D00026F04CF806E0424B2362434B6361404B6D
:1084E0006361E8E7686004F13C0C049404F1140350
:1084F000059304F12003069304F12C03079304F180
:108500003403089304AB0293052503956B4602AA36
:1085100092E8030083E8030004F14C03364AE26367
:10852000CCF80450354AE263CCF80830CCF80C3073
:10853000334BE363334BE363034600EB810041F3CA
:108540001D02954212D3DCF80820CCF80C2034E050
:10855000234BE362254B2362214B2362BDE7204B73
:108560006363234BE3621E4BE362F3E7264B0993FD
:10857000264B0A934FF4B5730B93254B1B68BFF33F
:108580005B8F13F0010F07D0224B5B68CBB109A9B9
:10859000204A1068984714E01D484EF07CFA0028E5
:1085A000F2D01C4B00221A605A6019484EF07FFA34
:1085B000EAE753F8041B42F8041B9842F9D1CCF8BF
:1085C0000C2020460DB030BD0D4BE3630B4BE36335
:1085D000094BE363074B6363014B6363C1E700BF70
:1085E00014980508AC9F0508E4A0050820A105081B
:1085F0000CA10508989F05087C9305088C93050835
:10860000289805083C980508F49A0508009B050879
:10861000044101200841012008B500F5987004F0DC
:1086200033FE08BDF0B585B006464368D3F8D000E8
:1086300003681B6C0DF10F0198479DF80F3023B9AB
:10864000D6F80C52D6F810721CE001213046FFF724
:10865000C7FE74E0012101A8FEF770FE50B1394B4E
:1086600018680368DB6800221D219847012101A8D2
:10867000FEF755FE01220621306809F069FF002C43
:1086800052D10435BD4253D0286803689B6898478F
:10869000044601A8FEF724FE631E072BEFD801A2B3
:1086A00052F823F0558600087F860008C58600082A
:1086B000EF860008F9860008118700081D8700086A
:1086C00005870008012101A8FEF738FE50B11D4BB7
:1086D00018680368DB6800221D219847012101A862
:1086E000FEF71DFE01213046FFF77AFEC7E70421A1
:1086F0003046FFF775FEC2E701220721306809F016
:1087000027FFBCE701220721306809F021FFB6E707
:1087100002220721306809F01BFFB0E7032207217E
:10872000306809F015FFAAE7306809F07FFE06E01F
:10873000306809F07BFE06F5CC7001F017FD05B03E
:10874000F0BD00BFD0DD002030B585B00546044641
:10875000204B44F85C3B2A6E6B6E9A4230D06268C4
:10876000A3689A4208D0A3680133A36022689342A9
:10877000F1D10023A360EEE7174B0193174B02934F
:1087800040F2A5330393164B1B68BFF35B8F13F0C6
:10879000010F08D0134B5B68002BE4D001A9114AEC
:1087A00010689847DFE70E484EF075F90028F1D0C1
:1087B0000C4B00221A605A6009484EF078F9E9E73C
:1087C00005F1080037F0BAF9074B2B60284605B0D1
